:1000000000800020BD010000899601005596010086
:100010005596010055960100559601005596010030
:1000200055960100559601005596010089960100EC
:1000300089960100559601008996010045960100B8
:100040008996010089960100899601008996010030
:100050008996010089960100899601008996010020
:100060008996010089960100899601008996010010
:100070008996010089960100899601008996010000
:1000800089960100899601008996010089960100F0
:1000900089960100899601008996010089960100E0
:1000A00089960100899601008996010089960100D0
:1000B00089960100899601008996010089960100C0
:1000C00089960100899601008996010089960100B0
:1000D00089960100899601008996010089960100A0
:1000E0008996010089960100899601008996010090
:1000F00089960100D5A201008996010091A901000D
:100100008996010091AE010089960100899601004F
:10011000899601008996010089960100899601005F
:10012000899601008996010089960100899601004F
:100130008996010089960100899601003D9301008E
:10014000899601008996010089960100899601002F
:10015000519B0100699B0100819B0100999B01005B
:10016000899601008996010089960100899601000F
:1001700089960100899601008996010089960100FF
:1001800089960100899601008996010089960100EF
:1001900089960100899601008996010089960100DF
:1001A00089960100899601008996010089960100CF
:1001B000899601008996010089960100564B4CF200
:1001C000205210B51A804DF628121A8000BF00BFC9
:1001D00019F05EFA514B4FF010621A60504A9A6063
:1001E000504ADA60A3F53043203B1A6812F480725B
:1001F00004D14D490A604FF4A8521A604B4B1A784B
:10020000110703D51A7842F008021A70484B2A22C7
:100210001A700023474A48499818884204D247492F
:10022000595899500433F5E7454A464B9A424FF0E6
:10023000000302D242F8043BF7E74349434A5958C6
:1002400099500433B3F5DE7FF7D1414B802103F899
:10025000011B40498B42F9D13F4B1A603F4B8A2228
:100260001A70A3F5805324225A70A0221A709A792A
:100270009207FCD59A79D406FCD4394B9A7902F0CE
:100280000C02082AF9D103221A7146225A719A796E
:100290009006FCD5324B9A795106FBD5314A4FF086
:1002A000827111600921516020221A702C4B9B79B8
:1002B00003F00C030C2BF9D12B4B2C4A1A602C4B5E
:1002C0002C4A1A6000225A60072243F8042C2A4A5A
:1002D000C3F80C2D62B619F01DFB134B1B68DA072F
:1002E00005D5264819F030FA254B264A1A60264BC8
:1002F0001B785B0609D5224C224A2368934204D11D
:100300001E4819F021FA002323601DF0B7FB19F0F5
:10031000C5F919F08AFCFEE70E2005403080044044
:10032000823F04000100002B14D0034002D007409C
:1003300000E007400082FF1F3CB9FF1FD488020085
:1003400040B9FF1F7C1E0020000000000080FF1F3E
:1003500000E400E05FE400E008ED00E0005006404B
:10036000004006404480044004800440C010050062
:1003700014E000E0BFD4010000002020455B315BA9
:100380001CE00340A5C3945A00F00740FFFFFFFFA5
:10039000FFFFFFFFFFFFFFFFFFFFFFFFFFFFFFFF6D
:1003A000FFFFFFFFFFFFFFFFFFFFFFFFFFFFFFFF5D
:1003B000FFFFFFFFFFFFFFFFFFFFFFFFFFFFFFFF4D
:1003C000FFFFFFFFFFFFFFFFFFFFFFFFFFFFFFFF3D
:1003D000FFFFFFFFFFFFFFFFFFFFFFFFFFFFFFFF2D
:1003E000FFFFFFFFFFFFFFFFFFFFFFFFFFFFFFFF1D
:1003F000FFFFFFFFFFFFFFFFFFFFFFFFFFFFFFFF0D
:10040000FFFFFFFFFFFFFFFFFFFFFFFFDEF9FFFF23
:1004100010B5054C237833B9044B13B10448AFF33E
:1004200000800123237010BD40B9FF1F00000000B1
:10043000D488020008B5064B1BB106480649AFF345
:1004400000800648036813B1054B03B1984708BD07
:1004500000000000D488020044B9FF1F3CB9FF1F10
:100460000000000038B5002105464FF0FF3221485A
:1004700018F046FE1F4810214FF0FF3218F048FEDA
:100480001C4804214FF0FF3218F04AFE194803219E
:100490004FF0FF3218F04CFE4FF0FF32154810219C
:1004A00018F04EFE13484FF0FF3118F059FE114876
:1004B0004FF0FF3118F04CFE0E484FF0FF3118F0AE
:1004C00057FE0D4B0B4800244FF0FF3213211C60E8
:1004D00018F056FE094B22461D600949002353506F
:1004E0000432102AF9D1074A002199500433102B05
:1004F000F9D138BD70B9FF1F5CB9FF1FD4BAFF1F17
:1005000060B9FF1FD8BAFF1F884207DA044B081AE8
:100510001B684FF4400191FBF0F11981704700BF57
:10052000D4BAFF1F014818F0BDBD00BF70B9FF1F4E
:1005300008B500F019FB007808BDFFFF032810B5CF
:10054000044615D8182242430A4BD15CFF290FD12B
:100550000121D15400F008FB074B1B68162204FB55
:1005600002340023C2185288E2520233162BF9D10A
:1005700010BD00BF44BBFF1F40BBFF1F032810B5C9
:1005800019D80D4A0D4C1268162310FB03F31C44B6
:100590001A440023E15AD1520233162BFAD1182300
:1005A0005843074BC25CFF2A01D0012A01D1FF2228
:1005B00000E00022C25410BD40BBFF1F00C7FF1F58
:1005C00044BBFF1F032810B50AD818235843054B16
:1005D000C41804EB41040A29628004BFFF22C254FC
:1005E00010BD00BF44BBFF1F032810B50FD8182152
:1005F0004143074A00238C188B54064A162100FBFE
:100600000120E218C15A51800233162BF9D110BDD6
:1006100044BBFF1F00C7FF1F08B50020FFF7E4FF22
:100620000120FFF7E1FF0220FFF7DEFF0320BDE816
:100630000840FFF7D9BF10B50024204600F094FA17
:1006400003781BB9E0B2FFF7CFFF04E0FF2B02D124
:10065000E0B2FFF773FF0134042CEED110BDFFFFB1
:10066000014B185C704700BFE8BAFF1F03299CBF0D
:10067000014B5854704700BFE8BAFF1F044B020AF1
:1006800018705A70020C000E9A70D870704700BF34
:10069000E8BAFF1F00231846054A995CDA000133C7
:1006A00001FA02F2042B40EA0200F5D1704700BFC4
:1006B000E8BAFF1F10B5294B1978C0F57F401C46DA
:1006C000FF300A04264BA1B142F0004242F0100272
:1006D0005A63DA6A02F47042B2F5405FF9D82278C0
:1006E0001F4B110480B2DAB141F0805108435863C6
:1006F0000FE01C4909680A704FF08052DA6210223C
:100700005A63174BDB6A03F47043B3F5405FF8D8C4
:10071000E5E7DA6A02F47042B2F5405FF9D80FE01B
:10072000104A146840F0C05021704FF08051D962D7
:1007300058630B4BDB6ADB00FBD5136801221A7090
:10074000074BDA6A12F0F00FFAD09A6BDA6A12F0FD
:10075000F00FFBD0024B9B6B10BD00BFA41C002010
:1007600000C00240A01C002010B5294B1978C0F52C
:100770007F401C46FF300A04264BA1B142F00042E4
:1007800042F012025A63DA6A02F47042B2F5405F34
:10079000F9D822781F4B110480B2DAB141F08051B0
:1007A000084358630FE01C4909680A704FF08052F3
:1007B000DA6212225A63174BDB6A03F47043B3F513
:1007C000405FF8D8E5E7DA6A02F47042B2F5405FBC
:1007D000F9D80FE0104A146840F0C05021704FF073
:1007E0008051D96258630B4BDB6ADB00FBD5136881
:1007F00001221A70074BDA6A12F0F00FFAD09A6BE6
:10080000DA6A12F0F00FFBD0024B9B6B10BD00BFF9
:10081000A41C002000C00240A01C002010B5294BE1
:100820001978C0F57F401C46FF300A04264BA1B161
:1008300042F0004242F014025A63DA6A02F4704253
:10084000B2F5405FF9D822781F4B110480B2DAB1BB
:1008500041F08051084358630FE01C4909680A7051
:100860004FF08052DA6214225A63174BDB6A03F4AA
:100870007043B3F5405FF8D8E5E7DA6A02F47042F6
:10088000B2F5405FF9D80FE0104A146840F0C0504C
:1008900021704FF08051D96258630B4BDB6ADB004B
:1008A000FBD5136801221A70074BDA6A12F0F00FB9
:1008B000FAD09A6BDA6A12F0F00FFBD0024B9B6B06
:1008C00010BD00BFA41C002000C00240A01C0020DE
:1008D00010B5294B1978C0F57F401C46FF300A043B
:1008E000264BA1B142F0004242F016025A63DA6A86
:1008F00002F47042B2F5405FF9D822781F4B110420
:1009000080B2DAB141F08051084358630FE01C49CE
:1009100009680A704FF08052DA6216225A63174B48
:10092000DB6A03F47043B3F5405FF8D8E5E7DA6AB1
:1009300002F47042B2F5405FF9D80FE0104A146833
:1009400040F0C05021704FF08051D96258630B4B7A
:10095000DB6ADB00FBD5136801221A70074BDA6AE9
:1009600012F0F00FFAD09A6BDA6A12F0F00FFBD0A7
:10097000024B9B6B10BD00BFA41C002000C00240B6
:10098000A01C002038B5134C2068FFF793FE606868
:10099000FFF7EAFEA068FFF741FFE068FFF798FF66
:1009A0000D490E4A0B68206822F8130003F1080570
:1009B000606822F8150003F11005A06822F8150000
:1009C00003F118000133E46822F8104003F0070334
:1009D0000B6038BD30BBFF1F2CBBFF1FECBAFF1FE5
:1009E00008B52C4B18600020FFF748FE0A200121B3
:1009F00018F0DAFE0920012118F0D6FE09200121A5
:100A000018F0B2FE244B254800214022196018F04E
:100A100075FD234B23491A6842F480521A60224B19
:100A2000224A1A604FF03842DA604FF078421A6179
:100A30004FF400720A601E49012008701D491960B8
:100A40001D4B1B78D90704D41C4A4FF41071116058
:100A500001E01B490A6013F0020F0CBF19491A4943
:100A60005B074FF4007254BF184B194B0A6054BF18
:100A70004FF410724FF400721A60164B4FF6FF726B
:100A800082F310021A605A609A60DA60FFF77AFF08
:100A900008BD00BF40BBFF1F2CBBFF1FECBAFF1FF0
:100AA0003C80044010B0044000C0024001401F8060
:100AB000A41C0020000C1F809C1C002018B00440C7
:100AC00008C004401CB004400CC0044014B00440F2
:100AD00004C0044030BBFF1F134B1A6842F480521D
:100AE0001A60124A4FF41073136042F8043C104B22
:100AF000104A1A601A6842F440621A601A6812F4C6
:100B0000804F4FF0384004D04FF07842D8601A61DF
:100B1000704742F4804141F0010119604FF0784183
:100B2000D86019611A6070473C80044018B00440D6
:100B300000C0024000001F8018F00ABD10B500235D
:100B4000074A084902F11800194452F8044B41F8C9
:100B5000044B8242F9D11833602BF1D110BD00BF94
:100B6000F0E2010044BBFF1F024B182202FB0030E1
:100B7000704700BF44BBFF1F10B50023054A06495C
:100B80001468CC50C818053312790271A02BF5D126
:100B900010BD00BF4FE30100A4BBFF1F00EBC1016C
:100BA000C9B21F2902489CBF01EB81014018704760
:100BB000A4BBFF1F73B5244C2449254D0C23A3600F
:100BC0004FF47A7302260093204678223C23666015
:100BD00017F082FE1F4966601623A3600B68A3FB13
:100BE00005234A68A2FB05028968A1FB0501009163
:100BF000642159433C20B1FBF0F101912046164994
:100C000017F06AFE154966602023A3604A68A2FBBC
:100C100005320B68A3FB05038968A1FB0551009110
:100C200020460F4917F058FE2A23A3600D4B0E49AA
:100C30001A680E4B666020461B6817F04DFE342381
:100C40006660A36002B070BD401C00205CE3010040
:100C50002222220264BCFF1F6CE3010054BCFF1F70
:100C600082E3010050BCFF1F92E3010060BCFF1F44
:100C70002DE9F041234CDFF8A880234F234E3A683A
:100C800023490C23A360D8F80030B3F800E03368A0
:100C900002252046AEEB12221B0A656017F01CFEEF
:100CA0001623A360D8F800307A68B3F802E07368BE
:100CB000184965602046AEEB12221B0A17F00CFEA5
:100CC0002023A360D8F80030BA68B3F804E0B36812
:100CD000114965602046AEEB12221B0A17F0FCFD9D
:100CE0002A23A360D8F800306560FA68DD88F368CD
:100CF0000A492046A5EB12221B0ABDE8F04117F075
:100D0000EBBD00BF401C0020D8BAFF1F60B9FF1F19
:100D10009FE30100ABE30100B7E30100C3E301007F
:100D2000D4BAFF1F37B5134C002140230A46009365
:100D30002046802317F046FB0023636020460C23E7
:100D40000D49A36017F076FD02230C48636016235B
:100D5000A36042680A49A2FB01320368A3FB015366
:100D60008068A0FB010100912046064917F0B4FD00
:100D700003B030BD401C00202BF9010044BCFF1F14
:100D800022222202CFE3010008B50C4B1A6842F080
:100D900080721A600A4B1A6842F001021A60182029
:100DA000012118F001FD1920012118F0FDFC054B6F
:100DB00020221A604FF400221A6408BDFCED00E006
:100DC000001000E008F00F402DE9F341314C0546DA
:100DD000A046314ED6F80828D6F80C38D31A022B84
:100DE00027D0D6F8083803F0010303F5007356F84E
:100DF0002310F1B1294F0122384617F020F9C8EB32
:100E000004020223D21001327B60BB603846032308
:100E1000234917F061FD3846216817F00BFD636820
:100E20009847384617F019F9D6F808380133C6F84C
:100E300008380023D5F8E010D5F8E420914218D006
:100E4000D5F8E41001F00F0205EBC2020131B2F84F
:100E50006220C5F8E410082A07D0042AEAD1A26863
:100E60002AB1E2681AB10834E4E70123E2E7094C49
:100E7000E0E7002BADD00023C5F8E430C5F8E03042
:100E8000084B1B680193019BC5F8EC3002B0BDE82C
:100E9000F08100BFF8E3010030140020401C002066
:100EA000E0E30100901C0020074A00234FF0FF31CF
:100EB000136051609360054A136051609360044A67
:100EC000136051609360704764BCFF1F54BCFF1FE8
:100ED00044BCFF1F70B5104C14F8085C54F8046C47
:100EE0002846022118F060FC02222846314618F0FC
:100EF0008DFC0A4A944204F1080301D01C46EBE73A
:100F0000074A00231360074A1A440433142B02D003
:100F100000211160F7E770BD20E4010038E4010012
:100F200070BCFF1F74BCFF1F08B50320022118F01E
:100F30003BFC032002490222BDE8084018F066BCD1
:100F4000ED82FF1F0E4B1A6812B100221A600122B7
:100F5000596819B10A4900204860022111439A6872
:100F60001AB1074A002090600422DB680A431BB1D3
:100F7000034B0021D96008230248134303607047E4
:100F800074BCFF1F70BCFF1F012303700F220023DE
:100F9000437080F822304362836280F8232000EBA4
:100FA0004302D9010133102B5180F8D1704730B57D
:100FB000141C18BF0124047074B132F813400023CC
:100FC0001A46C51802336A80202B224492B2F8D107
:100FD0000123437080F8231030BD0378F0B5002B57
:100FE00066D0437843B9436A994205DB836A9942E4
:100FF00002DC90F822005CE08DB2821D0D23002BF4
:101000000EDD5C102FB232F914C0BC4502EB440671
:10101000D7BFC4EB03032346B21C03F1FF33EEE753
:10102000831CD21A521097B2023A92B24FF6FF7353
:101030004FF4007415B23EB2B54214DC00EB450526
:1010400026B2B5F902504D1B002DB8BF6D42ADB2AE
:101050000FFA85FCB445B8BF134602F1010292B203
:10106000B8BF2C46E6E71BB200EB430230F8134052
:10107000B2F902200921C2EBC20214FB012424119F
:10108000446200EB4304002BA48814FB01224FEAC6
:101090002212826206DB90F923209342A8BF1346F6
:1010A0009BB200E00023DBB2002280F822304270C5
:1010B000184640B2F0BDFFFF2DE9F0474FF00008A1
:1010C00008F109020C2392FBF3F003FB10201CF043
:1010D00003FA1A49DFF86C901CF052FA1BF0BCFDC1
:1010E00004460D461AF0DAF806460F462046294611
:1010F0001AF00EF90022124B04460D4630463946CE
:101100001BF0FEFD1CF0DEF81CF000FC002249F88C
:1011100038000B4B204629461BF0F2FD1CF0D2F89C
:101120004FEAC80A1CF0F2FB09EB0A0608F10108B5
:10113000B8F10C0F7060C3D1BDE8F087920A063F8A
:1011400000003C4084BCFF1F2DE9F04F81461C236A
:10115000294885B00F46904617F004FA274B99F8B6
:10116000002003EBC20053F83210426801EB070C79
:1011700002EB080A01269B46214900911E48CDF842
:101180000CC0ACF10301AAF10302082317F03EF9E9
:1011900019F80630DDF80CC05BF8335016480BEB3D
:1011A000C3023D44546844440094614652462B4671
:1011B000013617F06FF9032E02D0AC46A246DBE7EA
:1011C00099F800200D490C4851F8323001EBC20269
:1011D0003B445268424400922946224617F05AF98D
:1011E000074B00930448E91EE21E082317F00EF98E
:1011F00005B0BDE8F08F00BF401C002084BCFF1F7D
:1012000047E301000F4B104A1968013101F0070153
:1012100070B50023C1F1080502EB4106144636F80B
:10122000132020F813200133AB42F8D100EB430325
:1012300000228A4205D034F8120023F8120001324D
:10124000F7E770BD2CBBFF1FECBAFF1F00231A4647
:10125000C15A0233102B0A44FAD1C2F3CF007047AF
:10126000104B1A68104B013202F0070230B502F140
:10127000080503EB4505C2F10801002335F81340CA
:1012800020F8134001338B42F8D1084900EB4303A7
:1012900012F1FF3204D331F8020F23F8020BF7E703
:1012A00030BD00BF2CBBFF1FECBAFF1FFABAFF1FF7
:1012B000104B1A68104B013202F0070230B502F1F0
:1012C000100503EB4505C2F10801002335F8134072
:1012D00020F8134001338B42F8D1084900EB430357
:1012E00012F1FF3204D331F8020F23F8020BF7E7B3
:1012F00030BD00BF2CBBFF1FECBAFF1F0ABBFF1F96
:10130000104B1A68104B013202F0070230B502F19F
:10131000180503EB4505C2F10801002335F8134019
:1013200020F8134001338B42F8D1084900EB430306
:1013300012F1FF3204D331F8020F23F8020BF7E762
:1013400030BD00BF2CBBFF1FECBAFF1F1ABBFF1F35
:1013500070B52B4C2378032B50D8DFE803F0021331
:1013600025382848FFF74EFF274B26481D68FFF712
:101370006DFFC0F57F40254BFF30C00A23F81500F4
:10138000012322E01F48FFF76BFF1F4B1D481D681C
:10139000FFF75CFFC0F57F401C4B4035FF30C00AB3
:1013A00023F81500022310E01648FFF781FF164BC3
:1013B00014481D68FFF74AFFC0F57F40134B803586
:1013C000FF30C00A23F815000323237070BD0D48B9
:1013D0000D4DFFF795FF0B482E68FFF737FFC0F55F
:1013E0007F4006F1C003FF30084AC00A013622F8E8
:1013F000130006F03F06002323702E6070BD00BF6F
:10140000F4BEFF1FE4BEFF1FF8BEFF1FE4BCFF1FBA
:101410002DE9F041FFF79CFF00232A4A2A4814686F
:101420002A4901341C4404F03F040E6830F81420AB
:10143000D51003EBC51502F0070716F805C0012209
:1014400002FA07F74CEA0707775504F140050F68E1
:1014500030F815C003F140054FEAEC0605EBC6165F
:101460000CF0070C17F8068002FA0CFC48EA0C0C8A
:1014700007F806C004F180060F6830F816C00CF1BA
:10148000200C4FEAEC0603EBC6160CF0070C17F81D
:10149000068002FA0CFC48EA0C0C07F806C0C034BF
:1014A000096830F814402034E01005EBC01004F057
:1014B0000704A2400C5C013322433F2B0A54ACD1F9
:1014C000BDE8F081F8BEFF1FE4BCFF1F401C0020F8
:1014D00070B52B4C2378032B50D8DFE803F00213B0
:1014E00025382848FFF78EFE274B26481D68FFF752
:1014F000ADFEC0F57F40254BFF30800A23F8150074
:10150000012322E01F48FFF7ABFE1F4B1D481D685B
:10151000FFF79CFEC0F57F401C4B4035FF30800A32
:1015200023F81500022310E01648FFF7C1FE164B02
:1015300014481D68FFF78AFEC0F57F40134B8035C5
:10154000FF30800A23F815000323237070BD0D4877
:101550000D4DFFF7D5FE0B482E68FFF777FEC0F55F
:101560007F4006F1C003FF30084A800A013622F8A6
:10157000130006F03F06002323702E6070BD00BFED
:10158000F4BEFF1FE4BEFF1FF8BEFF1FE4BCFF1F39
:10159000F8B5FFF79DFF0023184A194D1168194A45
:1015A0000131194401F03F0101F1400032F81140CE
:1015B00032F81000C61004EBC6142E6800F00707BE
:1015C00016F804C0012000FA07F74CEA0707375560
:1015D00001F1C004803132F8144032F8112029683A
:1015E000E610403202EBC61204F00704A0408C5C07
:1015F000013320433F2B8854CED1F8BDF8BEFF1FE6
:10160000401C0020E4BCFF1F70B50026074D084CAD
:101610000FCD34440FC40FCD0FC495E80300283616
:10162000A02E84E80300F1D170BD00BFD8E4010012
:1016300044C0FF1F0328D4BF044A054A4FF02803C3
:10164000C8BF043803FB0020704700BF44C0FF1F21
:10165000B0E401007047FFFF0278074B53F83230C7
:10166000027993F8003243EA4203DBB2037103F0DC
:10167000010080F0010070470483020001F00103C3
:10168000C1F3400180F8413080F85110704780F874
:101690003D10704737B504460D46D4F8E020D4F825
:1016A000E4309A423CD0D4F8E43003F00F0104EB6C
:1016B000C101603103C98DE803000133618FC4F8B3
:1016C000E430BDF8023011EA030008BF014694F887
:1016D0003C001EBF99436187012118B1002384F8A3
:1016E0003C30DAE70029D8D19DF80000022804D068
:1016F00003280ED001280FD109E0012B05D194F861
:101700003D204AB984F83C3006E0082B19D0AB6A7A
:1017100000E0EB6A684698470B4B01221A60BCE771
:101720000A4B1B680093009AD4F8EC30D21A636815
:101730009A4284BF012384F83C3094F83C0080F046
:10174000010003B030BD00BF4CAFFF1F901C002054
:10175000044B82B01B680193019BC0F88C3002B02F
:10176000704700BF901C002008B54FF47A735943AE
:10177000B1F5FA6F38BF4FF4FA6141606030FFF79E
:10178000E7FF08BDF8B5D0F8E050D0F8E4402C1BD6
:10179000102C03D10F4C2568013525600E4CD0F874
:1017A000E06025680135256006F00F0700F1600450
:1017B00004EBC70504F83710AB80BDF81830EB8098
:1017C000731C6A80C0F8E030C0F8E8302046FFF7AC
:1017D000BFFFF8BD50BCFF1F60BCFF1F70B546F2D5
:1017E000A81300250446056043606030FFF7B0FF92
:1017F0002646264B585DB0600221043517F0D4FF11
:10180000FF23102D337306F10806F2D104F12803EB
:1018100004F1380293424FF0000502D043F8045B14
:10182000F8E7102002212587658784F83C5084F86A
:101830003D50FF2617F0B8FF0F20022117F0B4FF2C
:101840001620022184F8405084F841506564A56454
:1018500084F84D6084F84C6017F0A6FF1520022133
:1018600017F0A2FF84F85D6084F85C60C4F8E8506B
:1018700084F85050C4F8E45084F851506565A5656B
:10188000C4F8E050C4F8EC5070BD00BF6C07020013
:1018900008B50020FEF7E4FE60B90120FEF7E0FE87
:1018A00040B90220FEF7DCFE20B90320FEF7D8FE87
:1018B000014650B1084800210C22802316F016FD85
:1018C000054B02225A609A6008BD03480C2280230F
:1018D00016F0E7FCF4E700BF401C00202DE9F04FB4
:1018E000554B87B01A680492DDF81080054689468A
:1018F0009B462B8F13F0040F14BF0326012613F011
:10190000080F03F0030318BF0226DA1E53425341A7
:1019100089F80030DBF800300593DDF814A0474B60
:10192000D3F80818D3F80C288A1A022A1F46F6D0D2
:10193000D3F8082802F0010202F5007253F82210D1
:101940000029ECD03E4C0122204616F078FBFFF730
:101950009FFF20463B4916F06DFF022311222046CF
:1019600039496360A260039316F064FF032E20469A
:10197000039B06D10C22009219460F22802316F0F9
:101980002FFC022363602E4830491D23A36016F00C
:1019900051FF022E07D10C230093294831461B2208
:1019A000802316F01DFC022363602923A36099F8AD
:1019B00000301BB12248264916F03CFF0223636029
:1019C0001F4824493523A36016F034FFC8EB0A04EE
:1019D000B4F57A7F28BF08F6E8334FF0020228BF3B
:1019E000CAEB030A00922CBFCAF3141380231448D5
:1019F00000213E2216F034FBD5F8E020D5F8E43083
:101A00009A4205D0D5F8E4300133C5F8E430F3E765
:101A10000B4816F022FBD7F808380133C7F808380E
:101A200040F6E7339C427FF664AF2B8F6B873046DE
:101A300007B0BDE8F08F00BF901C002030140020DC
:101A4000401C00207C0702008F070200A207020052
:101A5000B4070200C707020008B517F079FD034874
:101A60000349044ABDE808401BF0ECBFE4C0FF1F77
:101A700055160000B899FF1F70B5441CA14200F133
:101A8000FF35C8BFE1B205EB451529440F4E56F8A6
:101A900021107AB192FBF4F504FB15224FF0FF35CB
:101AA00005FA00F021EA0000A11A20FA01F100FA7B
:101AB00002F21143B3FBF4F204FB1233012404FAE3
:101AC00003F319420CBF0020012070BDDC070200A7
:101AD000431C30B59942044600F1FF3000EB401042
:101AE000C8BFD9B201440A4D55F821007AB192FB22
:101AF000F3F103FB11224FF0FF3101FA04F420EA65
:101B00000404981A24FA00F004FA02F2104330BDDB
:101B1000DC070200012303700023C0F82431C0F861
:101B20002831C0F82C31C0F830316FF03F0300EBA2
:101B30004302D9010133402BA2F8A210F7D170471C
:101B40002DE9F0430478002C7DD08E1AD0F82C11AA
:101B5000A6F540668E420ADBD0F830118E4206DCD4
:101B6000D0F828118B4202D1D0F8241166E0B7B228
:101B700000F128017B24002C10DD65100FFA87F896
:101B800031F91590C14501EB450CD7BFC5EB0404F5
:101B90002C460CF1020104F1FF34ECE700F12205C0
:101BA000491B49101FFA81F802398DB24FF6FF74B4
:101BB0004FF4804729B20FFA88FC614515DC00EB31
:101BC00041010FFA87FCB1F92210711A0029B8BF40
:101BD000494289B20FFA81F9E145B8BF2C4605F1B7
:101BE0000105ADB2B8BF0F46E4E725B200EB4501F1
:101BF00000EB45050F8CB1F92210AD8CC1EBC10192
:101C000009261C4417FB061724B215FB06113F11C9
:101C10000911002CC0F82C71C0F8301104DD7E2CA5
:101C2000A8BF7E24A4B200E0012424B200EB440447
:101C3000B4F92210C0F82411C0F82831114401F57C
:101C40004060BDE8F0830846BDE8F083002906DB6C
:101C50007F2902DDB0F92001704700EB4100B0F9A7
:101C60002200704709234FF466420380026100237B
:101C7000132283604380838083814361827642762E
:101C800002768377C37780F8203080F8213083652F
:101C900080F85430C0F8E43000F1220200F12A0349
:101CA0009A4203D0002122F8021BF9E700F1320228
:101CB000934203D0002123F8021BF9E700F134021C
:101CC00000F144018A424FF0000302D042F8043B85
:101CD000F8E7C0F8F030C0F8E030C0F8DC3000F1D0
:101CE0005C03DC30834203D0002243F8042BF9E785
:101CF0007047FFFF3C4B30B541F2B03490FBF4F439
:101D000003FB04004211394B0B295FD8DFE801F0D7
:101D1000060E161E262E363E465E4E5653F82210EE
:101D20000132C90A53F82230DB0A54E053F822107A
:101D30000132490A53F822305B0A4CE053F8221072
:101D40000132C90953F82230DB0944E053F822106C
:101D50000132890953F822309B093CE053F82210E4
:101D60000132490953F822305B0934E053F822105C
:101D70000132090953F822301B092CE053F82210D4
:101D80000132C90853F82230DB0824E053F822104E
:101D90000132890853F822309B081CE053F82210C6
:101DA0000132490853F822305B0814E053F822103E
:101DB0000132490053F822305B000CE053F8221046
:101DC0000132890053F822309B0004E053F82210BE
:101DD000013253F822305B1A00F01F00584301EB28
:101DE0005010A04030BD00BF50ECFFFF882A020019
:101DF0002DE9F04F87B004460291816D9DF8406057
:101E000001318165002B72D090F85430002B6ED0D8
:101E10009C4B994269D8A62906D8D0F8E43003EB48
:101E200043031944890854E0D0F8DC7000EB8703C1
:101E30004FF00009D9650125C84607F12003019339
:101E40005FFA85FC07F140000023C5EB000B00F0B2
:101E50001F0A0BF01F0B04EB8A0A04EB8B0BDAF85A
:101E60005CA0DBF85CB0CBEB0A0BBBF1000FB8BF9A
:101E7000CBF1000BBBEB1A1FDDF804A038BF013318
:101E800000F1FF3038BFDBB25045DED1434505F1EC
:101E900001053CBFCC464346082D02D0E14698469A
:101EA000CBE7013707F01F07C4F8DC70CCEB07075E
:101EB000D4F8E00007F01F0704EB8707081AFB6D52
:101EC000C4F8E0300028B8BF4042B0EB111F38BF63
:101ED0001946D4F8E430994207D04FF0FF33C4F8E4
:101EE000E410B3FBF1F1C4F8E8100023A36512B9C4
:101EF00094F821306BB104F1340304F144018B42B6
:101F00004FF0000202D043F8042BF8E784F82120B8
:101F100085E094F854301BB1D4F8E830636404E0F1
:101F200002982188FFF7E6FE6064FF2E0AD0022E99
:101F3000636C95BFC6F10306023E23FA06F603FA68
:101F400006F66664636B616C267E657EA07E8DF806
:101F500015600B44636313238DF814308DF816500D
:101F60008DF817002246002306AF1F4417F8037CA4
:101F7000132F03D1976B0F4497630DE0DFF808C16F
:101F80005CF82770A1FB07C74FEA1C6C4CEA072CD2
:101F9000976BBC44C2F838C00133032B02F1040232
:101FA000E2D1A368002B29DB132E1ABFA16BD4F852
:101FB000F020626B4FEAC33318BFC2EB01021A4430
:101FC000132DC4F8EC30A26303D1626B02EB430221
:101FD00004E0E16BD4F8F0208A1A1A441328E26373
:101FE00005D1626B03EB43031A44226413E0216CB6
:101FF000D4F8F0208A1A134423640CE0090C4B43F4
:1020000018460022A11804328D6B0C2AC0EB05057E
:102010008D631844F6D1D4F8EC30C4F8F0300023C6
:10202000E27E04938DF81120227F8DF81220627FCA
:102030008DF81320A27F0593A5898DF81520E27FE6
:102040008DF8162094F820208DF817200FFA85F9C6
:10205000A28A2069A68861880292C9F100090190CC
:102060000396224604EB8300466B28B200280DDD60
:10207000581C00F0030004EB4000408C10FB056688
:102080000DE000BFD7080200D8170200D81C00F0EE
:10209000030004EB4000B0F9220009FB006647484A
:1020A0004FEA213C0CEB0C2C8444300E471C1CF8EE
:1020B00000B00CF2011A1CF807C026F07F464FEA68
:1020C0000B28CBEB0C0C06FB0CFCA8F5004808EB2E
:1020D0002C481AF800C01AF807A04FEA0C2BCCEBDA
:1020E0000A0C06FB0CFCABF5004B1FFA88F80BEB57
:1020F0002C4B0FFA8BFB0FFA88FCCCEB0B0B4FEA47
:10210000011C1FFA8CFC0CFB0BFC08EB2C4C1FFA7F
:102110008CFC1FFA8CF8DFF8A8A0A2F82A8010F82F
:102120000A0017F80A704FEA002B381A7043ABF513
:10213000004B0FFA88F80BEB204B08F50048E0182D
:1021400003F1100A6F464FEA2828A2F822B080F85F
:1021500048801AF80700ACF5004C40B1B4F92A6089
:1021600006F50046064106FA00F08CEA000CB2F8CB
:102170004A60A2F84CC005A8C6F57F46185CB2F8C4
:102180004C70DDF80CA0FF3670430012C0F57F40A4
:10219000FF307843019E029F000C7043013307EB30
:1021A00020405144042BA2F84C0089B202F10202F3
:1021B0007FF458AF07B0BDE8F08F00BF741802007D
:1021C000852902002DE9F04F20480C1304EB04246C
:1021D00004444FF07F4A0901BAFBF3FA04F20116F6
:1021E00089B2002013F1FF332ED3050E05F101084B
:1021F00014F8059014F80870755D16F8088020F042
:102200007F4C4FEA092BC9EB0707ABF5004B0CFBE2
:1022100007F70BEB27474FEA052BC5EB0805ABF596
:10222000004B0CFB05FCBFB20BEB2C4CA7F5004997
:102230000FFA8CFC3FB2C7EB0C074F4309EB274763
:1022400022F8027B5044CDE7BDE8F08F74180200FD
:10225000014B1868704700BFF00900207047FFFF6E
:10226000034B1A68034B1B68192000FB02307047B0
:10227000C40A00206CC8FF1F7047FFFF014B18689D
:10228000400070476CE1FF1F7047FFFF014B18686B
:1022900080007047B4E1FF1F012802D1014B0022EA
:1022A0001A74704718EBFF1F7047FFFF014B186847
:1022B000800070470CE3FF1F012802D1014B002270
:1022C0001A747047CCF4FF1F7047FFFF014B18686A
:1022D000704700BF90EEFF1F7047FFFF014B18686B
:1022E00040007047C4F4FF1F7047FFFF014B1868A0
:1022F0008000704718E8FF1F70477047014B18684F
:10230000704700BFC8F4FF1F7047002070470020CF
:10231000704700207047FFFF10B50D4CD4F8003116
:10232000D4F80C11002004EB4313091A18BF012143
:102330009B689847D4F80431D4F80C1104EB43138C
:1023400000319B684FF0010018BF0121984710BD74
:10235000B0DAFF1F7047704710B5084CD4F8003151
:1023600004EB431300201B699847D4F8043104EBB5
:10237000431401202369984710BD00BFB0DAFF1F46
:10238000014B1868704700BFACD8FF1F70477047FB
:10239000014B1868704700BF28E3FF1F7047FFFF1D
:1023A000012802D1014B00221A71704700E8FF1F7B
:1023B000014B186880007047C0F4FF1F7047FFFF93
:1023C000014B18688000704748E0FF1F7047FFFF0F
:1023D00000487047DC3C0200044B4360044B8360C0
:1023E000044BC360044B0361704700BFE43C020030
:1023F0003D880200ED3C0200FB3C02001FB5154B7E
:10240000742202FB003004AA836C0093C36C019316
:10241000036D0293436D0393436C9B001A4452F87F
:10242000104C2144002942F8101C03DD6429A8BF88
:10243000642100E0012104AA134443F8101C009B0E
:102440008364019BC364029B0365039B436504B0E3
:1024500010BD00BF20080020044B742202FB003096
:10246000036CC3F101030364704700BF2008002020
:10247000004870470D3D0200044B4360044B8360ED
:10248000044BC360044B0361704700BF163D02005C
:10249000293D0200303D0200403D0200044B542221
:1024A00002FB0030036DC3F101030365704700BFF9
:1024B0004CE0FF1F044B542202FB0030036CC3F1BD
:1024C00001030364704700BF4CE0FF1F00487047E2
:1024D000523D0200044B4360044B8360044BC360D5
:1024E000044B0361704700BF5C3D02003D88020061
:1024F000643D0200743D0200054B682202FB00307F
:10250000036EC3F10103036642F6E0638363704721
:10251000A4040020114B682202FB0030036E00EB84
:102520008300436C0B44082BC8BF08234364436CEF
:102530000833BCBF6FF007034364436C2BB9002919
:10254000D4BF6FF0010301234364436C013304BF24
:10255000012343640023C364704700BFA404002028
:10256000044B682202FB0030036CC3F101030364D7
:10257000704700BFA404002000487047873D020058
:10258000034A044B8260044A4360C260036170479F
:10259000293D02003D8802008F3D020070477047D0
:1025A000044B4C2202FB0030036CC3F101030364B3
:1025B000704700BF94C7FF1F004870479B3D020053
:1025C000044B4360044B8360044BC360044B0361C2
:1025D000704700BFA43D0200B43D0200C73D0200A9
:1025E0003D88020070477047044B4C2202FB0030CC
:1025F000036CC3F101030364704700BF74E2FF1F63
:1026000000487047D83D0200044B4360044B836090
:10261000044BC360044B0361704700BFE23D0200FE
:102620003D880200EA3D0200F73D0200044B5422BF
:1026300002FB0030C36CC3F10103C364704700BFE9
:1026400008DAFF1F0B4B542202FB0030C36C43B966
:10265000436C19443E29A8BF3E2121EAE17141643F
:102660007047836C19443E29A8BF3E2121EAE171DD
:102670008164704708DAFF1F044B542202FB0030CC
:10268000036CC3F101030364704700BF08DAFF1F46
:1026900000487047093E0200034A044B8260044A26
:1026A0004360C26003617047293D02003D8802001B
:1026B000123E020070477047044B4C2202FB003070
:1026C000036CC3F101030364704700BF70D9FF1F9F
:1026D00000487047243E0200044B4360044B836073
:1026E000044BC360044B0361704700BF2E3E0200E1
:1026F000413E0200493E02003D880200704770479B
:10270000044B502202FB0030036CC3F1010303644D
:10271000704700BFC0E1FF1F2DE9F0432D480021A5
:1027200050F8044C0023C4F1400225189342DFF80E
:10273000ACC004D0EE5C0CF803600133F6E76344F0
:102740000022A24203D0855C9D540132F9E701F1D9
:102750000806F610F6014FEAE1084FEAC81806F13C
:1027600040043F221C4D1CF802302F683B552F6857
:10277000374403F00209BB54DF0947EAC31747EAAD
:10278000491703F0040947EAC90703F0080947EAB3
:10279000490703F0100947EA590703F0200947EAFF
:1027A000D90703F0400347EA53132F68C6EB080923
:1027B0002744DBB207F809302D6845440134AB5497
:1027C000013A531CCED11031402900F58470A7D1B5
:1027D000BDE8F083B8F5FF1F401C00202CC8FF1F88
:1027E0002E4A002170B50346A2F864102C4C062531
:1027F00005FB0144247D062C41D8DFE804F0041ACF
:102800001A2727343400B2F86450244C3DB10E59D5
:1028100006F00F06354303F8015B002506E00D596D
:102820002D01EDB26FEA05556FEA1555A4F8645015
:1028300025E0B2F864402CB103F8014B174C002599
:10284000A4F86450545803F8014B18E0B2F86440FF
:102850002CB103F8014B114C0025A4F864505458D6
:1028600023F8024B0BE0B2F864402CB103F8014BA3
:102870000A4C0025A4F86450545843F8044B043122
:102880006429B3D1B2F864202AB103F8012B034ABA
:102890000021A2F86410181A70BD00BF30C2FF1FDB
:1028A00058B2FF1F574B00222DE9F04105469A838D
:1028B0005549062404FB0211097D062939D8DFE8B1
:1028C00001F004181823232E2E009C8B4D493CB197
:1028D000565806F00F06344300F8014B002406E07A
:1028E00054582401E4B26FEA04546FEA14548C8300
:1028F0001FE0998B21B100F8011B424900248C8311
:10290000995800F8011B14E0998B21B100F8011BC4
:102910003C4900248C83995820F8021B09E0998BCC
:1029200021B100F8011B374900248C83995840F8E5
:10293000041B04321C2ABBD19B8B23B100F8013B42
:10294000304B00229A833149401B01F1100201F5FE
:10295000017C2E180024148233462D4F4FF00608B8
:1029600008FB04773F7D062F3AD8DFE807F0041C08
:102970001C2626303000B2F810801759B8F1000F2D
:1029800009D007F00F0747EA0807178203F8017B11
:1029900000270F8424E03F01FFB26FEA07576FEA78
:1029A000175717821CE0178A1FB103F8017B002715
:1029B0000F84175903F8017B12E0178A1FB103F83F
:1029C000017B00270F84175923F8027B08E0178A40
:1029D0001FB103F8017B00270F84175943F8047BCC
:1029E0000434102CB9D1148A1CB103F8014B002413
:1029F0000C8414329B1B6245184401F11401A8D1C8
:102A0000BDE8F08130E8FF1FE431020040E8FF1F1D
:102A1000085B0200324BF0B5074603F5E76600207D
:102A20003D180021A3F8D8102A462E4C4FF0060C72
:102A30000CFB0144247D062C3FD8DFE804F0041B86
:102A40001B2727333300B3F8D8C05C58BCF1000F04
:102A500007D004F00F0444EA0C0C02F801CB002468
:102A600005E02401E4B26FEA04546FEA1454A3F8B9
:102A7000D84022E0B3F8D84024B102F8014B00243A
:102A8000A3F8D8405C5802F8014B16E0B3F8D840E0
:102A900024B102F8014B0024A3F8D8405C5822F876
:102AA000024B0AE0B3F8D84024B102F8014B0024ED
:102AB000A3F8D8405C5842F8044B0431D829B4D16B
:102AC000B3F8D81021B102F8011B0021A3F8D810E7
:102AD00003F56773521BB3421044A1D1F0BD00BF90
:102AE00070C8FF1F1CAAFF1F294AF0B50646002028
:102AF0003518002191852B46264C062707FB0144FB
:102B0000247D062C34D8DFE804F004161620202A91
:102B10002A00978D545837B104F00F04274303F867
:102B2000017B002405E02401E4B26FEA04546FEA5B
:102B3000145494851CE0948D1CB103F8014B0024BF
:102B40009485545803F8014B12E0948D1CB103F89E
:102B5000014B00249485545823F8024B08E0948DCF
:102B60001CB103F8014B00249485545843F8044BDE
:102B700004312C29C0D1918D19B103F8011B00211A
:102B800091855B1B1844044B78329A42B0D1F0BD5A
:102B900040EBFF1F783B020020EDFF1F2F4AF0B5EE
:102BA0000646002035180021A2F84C102B462C4C6C
:102BB000062707FB0144247D062C3CD8DFE804F0FF
:102BC0000418182424303000B2F84C70545837B12F
:102BD00004F00F04274303F8017B002405E02401DF
:102BE000E4B26FEA04546FEA1454A2F84C4022E0B5
:102BF000B2F84C4024B103F8014B0024A2F84C4039
:102C0000545803F8014B16E0B2F84C4024B103F8D5
:102C1000014B0024A2F84C40545823F8024B0AE020
:102C2000B2F84C4024B103F8014B0024A2F84C4008
:102C3000545843F8044B04314C29B8D1B2F84C1025
:102C400021B103F8011B0021A2F84C105B1B1844B2
:102C5000044B02F584729A42A4D1F0BDF0F4FF1F38
:102C60000030020010F9FF1F2E4A002170B5034604
:102C7000A2F87C102C4C062505FB0144247D062C73
:102C800041D8DFE804F0041A1A2727343400B2F8D8
:102C90007C50244C3DB10E5906F00F06354303F825
:102CA000015B002506E00D592D01EDB26FEA0555D7
:102CB0006FEA1555A4F87C5025E0B2F87C402CB1A1
:102CC00003F8014B174C0025A4F87C50545803F826
:102CD000014B18E0B2F87C402CB103F8014B114CC9
:102CE0000025A4F87C50545823F8024B0BE0B2F8AE
:102CF0007C402CB103F8014B0A4C0025A4F87C5011
:102D0000545843F8044B04317C29B3D1B2F87C20E9
:102D10002AB103F8012B034A0021A2F87C10181AEB
:102D200070BD00BF94EEFF1F24A7FF1F324BF0B50C
:102D3000074603F59C6600203D180021A3F87C108F
:102D40002A462E4C4FF0060C0CFB0144247D062C29
:102D50003FD8DFE804F0041B1B2727333300B3F808
:102D60007CC05C58BCF1000F07D004F00F0444EAAB
:102D70000C0C02F801CB002405E02401E4B26FEA58
:102D800004546FEA1454A3F87C4022E0B3F87C406A
:102D900024B102F8014B0024A3F87C405C5802F8EF
:102DA000014B16E0B3F87C4024B102F8014B00243B
:102DB000A3F87C405C5822F8024B0AE0B3F87C4050
:102DC00024B102F8014B0024A3F87C405C5842F87F
:102DD000044B04317C29B4D1B3F87C1021B102F842
:102DE000011B0021A3F87C1003F51C73521BB34296
:102DF0001044A1D1F0BD00BFC80E002070AFFF1F6E
:102E00002F4AF0B50646002035180021A2F884109C
:102E10002B462C4C062707FB0144247D062C3CD86E
:102E2000DFE804F00418182424303000B2F884706D
:102E3000545837B104F00F04274303F8017B0024F2
:102E400005E02401E4B26FEA04546FEA1454A2F8D6
:102E5000844022E0B2F8844024B103F8014B0024FE
:102E6000A2F88440545803F8014B16E0B2F88440AD
:102E700024B103F8014B0024A2F88440545823F8ED
:102E8000024B0AE0B2F8844024B103F8014B00245D
:102E9000A2F88440545843F8044B04318429B8D133
:102EA000B2F8841021B103F8011B0021A2F88410AC
:102EB0005B1B1844044B02F500729A42A4D1F0BD8A
:102EC0009CD0FF1F2C3402009CD8FF1F2E4A0021EB
:102ED00070B50346A2F894102C4C062505FB01445E
:102EE000247D062C41D8DFE804F0041A1A27273481
:102EF0003400B2F89450244C3DB10E5906F00F0640
:102F0000354303F8015B002506E00D592D01EDB2B4
:102F10006FEA05556FEA1555A4F8945025E0B2F80C
:102F200094402CB103F8014B174C0025A4F89450A1
:102F3000545803F8014B18E0B2F894402CB103F850
:102F4000014B114C0025A4F89450545823F8024B1F
:102F50000BE0B2F894402CB103F8014B0A4C002569
:102F6000A4F89450545843F8044B04319429B3D135
:102F7000B2F894202AB103F8012B034A0021A2F8E9
:102F80009410181A70BD00BF000A0020685B020090
:102F9000284A002170B503461185274C062505FBFC
:102FA0000144247D062C39D8DFE804F004181823E6
:102FB000232E2E00158D1F4C3DB10E5906F00F0625
:102FC000354303F8015B002506E00D592D01EDB2F4
:102FD0006FEA05556FEA155525851FE0148D24B15C
:102FE00003F8014B134C00252585545803F8014B79
:102FF00014E0148D24B103F8014B0E4C00252585F7
:10300000545823F8024B09E0148D24B103F8014B06
:10301000084C00252585545843F8044B04312829D1
:10302000BBD1128D22B103F8012B024A0021118578
:10303000181A70BDB0D8FF1F3C3302002E4A002181
:1030400070B50346A2F854102C4C062505FB01442C
:10305000247D062C41D8DFE804F0041A1A2727340F
:103060003400B2F85450244C3DB10E5906F00F060E
:10307000354303F8015B002506E00D592D01EDB243
:103080006FEA05556FEA1555A4F8545025E0B2F8DB
:1030900054402CB103F8014B174C0025A4F85450B0
:1030A000545803F8014B18E0B2F854402CB103F81F
:1030B000014B114C0025A4F85450545823F8024BEE
:1030C0000BE0B2F854402CB103F8014B0A4C002538
:1030D000A4F85450545843F8044B04315429B3D144
:1030E000B2F854202AB103F8012B034A0021A2F8B8
:1030F0005410181A70BD00BF30EDFF1F4458020075
:10310000324BF0B5074603F5386600203D18002124
:10311000A3F8BC102A462E4C4FF0060C0CFB0144C1
:10312000247D062C3FD8DFE804F0041B1B2727333F
:103130003300B3F8BCC05C58BCF1000F07D004F0FA
:103140000F0444EA0C0C02F801CB002405E0240132
:10315000E4B26FEA04546FEA1454A3F8BC4022E0CE
:10316000B3F8BC4024B102F8014B0024A3F8BC40E2
:103170005C5802F8014B16E0B3F8BC4024B102F8E9
:10318000014B0024A3F8BC405C5822F8024B0AE033
:10319000B3F8BC4024B102F8014B0024A3F8BC40B2
:1031A0005C5842F8044B0431BC29B4D1B3F8BC10CC
:1031B00021B102F8011B0021A3F8BC1003F53873FC
:1031C000521BB3421044A1D1F0BD00BF20F9FF1F34
:1031D000BCA2FF1F30492DE9F04184460A4601F5A3
:1031E000707700200CEB0005002414852B462B4E35
:1031F0004FF0060808FB0466367D062E3AD8DFE855
:1032000006F0041C1C2626303000B2F8288016591F
:10321000B8F1000F09D006F00F0646EA0806168539
:1032200003F8016B00260E8524E03601F6B26FEA42
:1032300006566FEA165616851CE0168D1EB103F869
:10324000016B00260E85165903F8016B12E0168DEE
:103250001EB103F8016B00260E85165923F8026B88
:1032600008E0168D1EB103F8016B00260E85165975
:1032700043F8046B0434282CB9D1148D1CB103F825
:10328000014B00240C85F0325B1BBA42184401F15B
:10329000F001A7D1BDE8F081F00A002054570200E8
:1032A0007047704770477047704770477047704766
:1032B0007047704770477047704770477047704756
:1032C00070477047704770471A4B13B5D3F8100119
:1032D00000281C4617DAD3F8003104EB4313002012
:1032E000DB689847D4F8043104EB43130120DB6812
:1032F0009847D4F8081179B9402300930E480A463C
:1033000015F060F808E000F1400253F8222003EBCA
:103310004213DB6898470AE0D4F80831012B06D144
:1033200040210091044800220B4615F04BF802B0F2
:1033300010BD00BFB0DAFF1F401C00202DE9F04F88
:10334000494E85B0002756F8042C0023C2F1050031
:1033500006EB420483424FEA4301DFF8148105D0B3
:1033600034F8131028F813100133F3E74144002315
:10337000934205D036F8130021F813000133F7E724
:10338000B8F8005056F80C3C3848AD0A4FEA537A6A
:10339000C5F13F0539462A4653460AEB070B14F0A0
:1033A00080FF324859462A46032314F0C7FF4FF0E6
:1033B000000908EB09030BEB890C5C882B48CDF85E
:1033C0000CC0A40AC4F13F0461462246082314F04D
:1033D00068FFAC42DDF80CC004D1244861462A469F
:1033E00002230AE004DA2B1B20486146224603E050
:1033F0001E48631B61462A46013309F1020914F095
:103400009DFFB9F1060F01D02546D2E7B8F8085064
:103410001648AD0AC5F13F0502230BF118090093C8
:1034200049462A46CAF1080314F01AFEA54204D1FF
:103430000E484946224603230AE004DA631B0B4880
:1034400049462A4603E009482B1B494622460133D8
:10345000203714F073FF802F06F118067FF473AF46
:1034600005B0BDE8F08F00BF4CC6FF1F401C002018
:10347000F4090020FDF7CCBFFDF7CABFFEF788B8FE
:1034800010B5044616F050FB204610BD8368406816
:103490009A1C034B0230586018469A6015F0CAB95E
:1034A000401C0020428F034611EA020003D022EAAA
:1034B00001025A87012093F83C201AB1002283F8B8
:1034C0003C2001207047FFFF10B5044621442344EF
:1034D0000248BDE8104014F0DDBF00BF401C0020D2
:1034E000054B742202FB0030436C0133042BA8BF50
:1034F00000234364704700BF20080020074B54227C
:1035000002FB003001EB8101436C0B44642BA8BF2C
:10351000642323EAE3734364704700BF4CE0FF1F5A
:1035200013B50446C968FFF7B1FF237843B161685A
:103530000448A2680B230093C1F1800314F050FEED
:1035400002B010BD401C002060B921B90E4B1868B4
:1035500000F001007047012914D10B4B1868C0F32B
:103560004000704701280CD121B9074B1868C0F3FF
:1035700080007047012904D1034B1868C0F3C000D4
:1035800070470020704700BF70BCFF1F07B50331B4
:103590008B10024609D00649064801EB83030093CD
:1035A00011460423022214F031FF03B05DF804FB3E
:1035B00027E30100401C00200378012B10B50446CE
:1035C0001ED14088431E012B294B0ED8D3F8082169
:1035D00010F1FF3018BF0120904206BF4FF0FF32BC
:1035E000C3F80821C3F808010AE0043818BF012015
:1035F00000F1400253F8222003EB42135B69984725
:103600002378022B32D16388022B09D1184BD3F8CF
:103610000C21D2F1010238BF0022C3F80C2110BDE9
:10362000042B23D1124CD4F81001002807DB00F141
:10363000400354F8233004EB4313DB699847D4F874
:1036400010210B4B0132012AC8BF4FF0FF32C3F8E3
:103650001021D4F81001064B002807DB00F14002CE
:1036600053F8222003EB4213DB69984710BD00BFDB
:10367000B0DAFF1F0B4B682202FB00300A4B1A68BE
:10368000C36DD31A41F28732934209DC074A81693C
:10369000074893FBF2F31F311F22183314F062BF67
:1036A000704700BFA404002060E2FF1F0CFEFFFF74
:1036B000401C00202DE9F3472C4C9DF8289098469B
:1036C00094F828308B4207460D46164607D194F8E9
:1036D0002930934203D194F82A3043450BD0284631
:1036E00031464246FEF7F4F984F82850606284F8C7
:1036F000296084F82A80691C99FBF1F301FB139976
:10370000202934BF0D46202501EB41014FEA610A13
:103710000AF1420A05EB4503666AC3EB0A0A002474
:1037200004EB4408F307D04405D507230093104861
:1037300041467A1C04E001230D4800934146FA1DDE
:10374000022314F08DFCA14507D102230093084801
:10375000414607F1090214F083FC0134AC424FEA00
:103760005606DDD302B0BDE8F08700BF6CD0FF1F66
:10377000401C0020012816D10B4B93F850201AB1A1
:10378000002283F850209A65084BD3F8D42202F027
:10379000030103EB810101320020C3F8D422C1F8F8
:1037A000C402C3F8DC227047E4C0FF1F30E8FF1FEB
:1037B0001E4BD3F80811002910B51A4604460BDB3E
:1037C000B0F90430D2F81001002BD4BF4FF0FF3411
:1037D0000124013028D113E04088103818BF01209F
:1037E00000F1400253F8222003EB4213B4F9042005
:1037F0009B69002AD4BF4FF0FF310121984710BDCB
:1038000001F1400052F820302344072B03DC002B49
:10381000B8BF072300E0002342F8203002EB431337
:1038200008465B68984710BD10BD00BFB0DAFF1FA7
:1038300070B5114C1149C0B04FF480764FF0FF3590
:1038400032466846C4F8085115F0BEFD6946324656
:10385000204615F0B9FD0020C4F80C01C4F80001A1
:103860006368C4F8105198470120C4F80401636AE2
:10387000984740B070BD00BFB0DAFF1FE02D0200D6
:1038800070B50C246243013B01EBC211042B15D827
:10389000DFE803F003060B0E130046F2CC3301E021
:1038A00045F2B5135943C91308E042F6ED43F9E771
:1038B00046F271535943891300E0491001F59051C4
:1038C000B1F5705FA8BF4FF4705121EAE1714FF478
:1038D000C0620B4C91FBF2F30B26A3EB830524682B
:1038E00006FB003311EB452534F8130007D00133F4
:1038F00034F81310091A694391FBF2F2104470BDB9
:1039000040BBFF1F0C2303325A4301EBC211B1F538
:10391000705FB4BF0A464FF4705270B522EAE2728B
:103920004FF4C0610D4C92FBF1F30B25A3EB830622
:10393000246805FB003512EB462634F8153007D015
:10394000013534F81520D21A724392FBF1F10B4481
:10395000034A83F3100342F8203070BD40BBFF1FC1
:1039600030BBFF1F0B22064B02FB00111B68CA1C59
:1039700033F81220034B82F3100243F820207047E3
:1039800040BBFF1F30BBFF1F10B50446214600207F
:10399000FFF7E8FF21460120FFF7E4FF2146022060
:1039A000FFF7E0FF03202146FFF7DCFF10BDFFFF1C
:1039B000094A0368116842688A1A59688A429968F4
:1039C00038BF5A608A42196888BF9A60C1EBC1014A
:1039D0000A44D2081A607047041000E0044B1B68C8
:1039E00033F81020034B53F82000A2EB102070474F
:1039F000D4BAFF1FD8BAFF1F08B5FFF7EFFF034B7C
:103A00001B681B895843001308BD00BFD4BAFF1FB1
:103A1000064B074A1B6852F8202033F810101B8908
:103A2000A1EB122058430013704700BFD4BAFF1F08
:103A300060B9FF1F2DE9F041054688468718044606
:103A4000BC420DD0C5EB080320461E5D15F0C4FD39
:103A5000864203D02046314615F0D2FD0134EFE70F
:103A6000BDE8F081F8B505460E4687180446BC420D
:103A700006D0204615F0B0FD731B18550134F6E74B
:103A8000F8BDFFFF0138C0B2022898BF074B084AB3
:103A900094BF1B560023DBB252F8333093F8000278
:103AA000D0F1010038BF0020704700BFD45F020092
:103AB0000483020010B512B14FF0FF3308E0036831
:103AC0003BB1044C61438B4201D2026010BD5B1AD2
:103AD000036010BDF47E1D0003464068814203DB95
:103AE00098688142B8BF08467047FFFF2DE9F04350
:103AF000BDF81C6051B15BB162B14FF6FF749C40E0
:103B000036EA04040CBF0024012404E00C4602E061
:103B10001C4600E014460470002C48D000252C46BA
:103B20009D420BD0F70706D500EB440731F815C0CE
:103B3000A7F802C0013476080135F1E7002300F14F
:103B4000020C00F1220919461F4604F10045013D0F
:103B50006D1A3CF911603CF91500FD4302FB0505A7
:103B6000144807FB02668642804605DB47F6FF7075
:103B70008642A8BF064600E00646454505DB47F6F7
:103B8000FF708542A8BF054600E00A4D09EB03001F
:103B90000131A142A0F88060A0EB430003F10203D1
:103BA00024BF01370021802BA0F87E50CDD1BDE885
:103BB000F08300BF0180FFFF13B50B46B1F9004051
:103BC0000092083122465B68FFF790FF02B010BDFB
:103BD000036803F11002914203DCA3F11002914249
:103BE00001DA01600B4603F13F00C0117047FFFF8F
:103BF00070B5049CA24206460D4606D0084C611FD3
:103C00009A420CBF23460B4600E0064B0493711FFB
:103C10006A1C05480523BDE8704014F0F7BB00BFDF
:103C200019E301001EE30100401C002073B59C68ED
:103C3000A24206460D4607D05868084B591F8242DB
:103C40000CBF1A460A4600E0054A00920548711F5B
:103C50006A1C052314F0DAFB02B070BD19E3010001
:103C60001EE30100401C00202DE9F74F1446374A9F
:103C7000054610680C9A00FB0233354803EB8303BA
:103C80001A181F5C92F90380967832480094A1EBD1
:103C9000480842462946234614F0E2F97FB22E49ED
:103CA000BF00CB194FF6FD7B93F9013076B21BFBB9
:103CB000038B2A4BB6009A19894692F901200BEB27
:103CC0000212072A984603DD402AA8BF402200E0DE
:103CD0000822234600941F48294614F073FB09EB81
:103CE00007034FF6FD7A93F902301AFB03BA08EB8B
:103CF000060393F902200AEB0212072A03DD402A89
:103D0000A8BF402200E008224F44294623460094E1
:103D10001048464414F056FB97F9033096F90320F7
:103D20004FF6FD7111FB03AA0AEB0212072A03DD0D
:103D3000402AA8BF402200E0082206480C942946E9
:103D4000234603B0BDE8F04F14F03CBB54E3010040
:103D5000A4BBFF1F401C0020EC5E0200C83C020018
:103D600073B504460E46D1681546FFF78FFBA3686E
:103D700011489A1C236943602B69826023B153F870
:103D8000261014F08DFD02E0314614F029FD637811
:103D90002BB1E068A16832462B46FFF747FF237836
:103DA00043B161680448A2680B230093C1F180030A
:103DB00014F016FA02B070BD401C002073B5044622
:103DC0000D46D1681646FFF761FBA36815489A1C9B
:103DD000236943603369826013B153F8251001E011
:103DE0001DB9114914F05CFD06E0FF2D01D10F490A
:103DF000F8E7294614F0F4FC63782BB1E068A16879
:103E00002A463346FFF712FF237843B1616805481D
:103E1000A2680B230093C1F1800314F0E1F902B012
:103E200070BD00BF401C00205C3E0200613E0200ED
:103E3000F7B504460E46D16815461F46FFF726FB28
:103E4000A36812489A1C82602A692369436022B1E0
:103E500052F8261014F024FD02E0314614F0C0FCA4
:103E6000637833B10097E068A1686B683246FFF76A
:103E7000BFFE237843B161680448A2680B23009316
:103E8000C1F1800314F0ACF903B0F0BD401C002078
:103E9000F7B504460E46D96817461D46FFF7F6FAF1
:103EA000A3680E489A1C314623694360826014F06F
:103EB000F7FC63782BB1E068A1683A462B46FFF720
:103EC000B5FE237843B161680448A2680B230093D0
:103ED000C1F1800314F084F903B0F0BD401C002050
:103EE00007B50278034642B1416805480B220092AB
:103EF0009A68C1F1800314F073F903B05DF804FB14
:103F0000401C0020836841689A1C024B02315960B2
:103F10009A607047401C002090F850308B4203D0CC
:103F2000002380F85010836590F840308B4203D016
:103F3000002380F840108364704738B543784568A3
:103F4000FF2B044622D0FF2015F05AFE63789842DA
:103F50001CD320780123013815F0010F03FA00F07B
:103F600025FA03F514BF284325EA000028B90220EA
:103F700015F046FE2378013B9840237860604FF0AF
:103F8000FF3202FA03F320EA030038BD85F0010591
:103F9000DFE738B503788B4204460D4607D202208E
:103FA00015F02EFE23789840636803436360257004
:103FB00038BDFFFF38B54FF480710446002015F07E
:103FC0002AFEB4F91A3000B2834203DD237E83F067
:103FD00001032376A37DA2880BB9217E09B10132AA
:103FE00000E0013AA280A288B4F9080011B2884228
:103FF00006DA13B1E388A38002E0023AA2802376B6
:10400000A388B4F906101AB28A4203DA0233A380F5
:1040100001232376A28813B28B420CBF0121002119
:10402000E175B4F90010092940D8DFE801F005076F
:10403000090B133436383A3C234A35E0234A33E03F
:10404000234A31E0E38913FB02F0C11719F0A4FC05
:10405000A0812BE0E38913FB02F200232375637533
:1040600022612023012000FA03F101EA02058D42BA
:10407000617D04D1257D60752944217501E04942A7
:10408000617513F1FF33EDD294F9142094F91530D2
:1040900013440C3309E00F4A06E00F4A04E00F4ACC
:1040A00002E00F4A00E00F4AD35CA381B4F90C2070
:1040B000B4F9023092FBF3F003FB10200002A08160
:1040C00000F47F4038BD00BFE0010200900602000E
:1040D00038FF0100FCFF0100B40202003C030200B3
:1040E0009C000200E8FD0100002903DB7E29A8BF37
:1040F0007E2100E000214389C1800B449BB21AB2AB
:10410000002AD8BF01230381B0F908307F2BC4BF38
:104110007F230381B0F904308B42B8BF81800389CB
:10412000B0F904101AB29142C8BF838070470029C9
:1041300003DD7F29A8BF7F2100E00121C3884181E1
:10414000194489B20AB2002AD6BF01220181028134
:10415000B0F90820B0F904107F2AC4BF7F22028181
:104160001AB29142B8BF83800389B0F904101AB221
:104170009142C8BF8380704770B50C688D68048019
:104180002D12C4F30334C4834C688571CD68448018
:104190002D12C5710D692D1205728D694E692D02A2
:1041A00005EB0646CD69354445614D6A0E6A2D0220
:1041B00005EB06468D6A35448561C96A0277A2B26D
:1041C000437753130133012BC2F57F4208BF02230B
:1041D000FF3242FA03F309129BB2818003B9012333
:1041E000038470BD022380F87434032380F875348F
:1041F000012380F87634042380F87734072380F88D
:104200007834062380F87934052380F87A3409233A
:1042100080F87B34082380F87C34036A022B12D0A8
:10422000032B22D0012B02D000F27D4334E00A237D
:1042300080F87D340C220B2380F87E3480F87F24B4
:1042400000F5906328E00D2380F87D340E2380F87C
:104250007E340F2380F87F341122102380F88034BD
:1042600080F8812400F2824316E0122380F87D3426
:10427000132380F87E34142380F87F34152380F8CC
:104280008034162380F881341822172380F8823472
:1042900080F8832400F2844300F274429B1AC0F831
:1042A00070347047034B93F8692082F0010283F861
:1042B0006920704730C2FF1F034B93F8672082F0DC
:1042C000010283F86720704730C2FF1F064A017160
:1042D0000C2359435318525882605A689B680361F3
:1042E0000023C26003607047042D020000292DE9FD
:1042F000F043006804D1916051601160BDE8F08323
:104300004FF0030300F1010400F102052EDD52F825
:10431000207001F1020C9CFBF3FC0C2606FB0C77D1
:1043200042F82070B4FBF3F707EB4707E41B01F1F9
:10433000010C52F824709CFBF3FC06FB0C7742F84E
:104340002470B5FBF3F404EB44042D1B91FBF3F74D
:1043500052F825400144B1FBF3F306FB074603EB9B
:10436000430342F82560C81ABDE8F083B5FBF3F6B5
:1043700006EB4606C6EB05096FF0020752F8295016
:10438000C1F102080C2698FBF7F806FB0858B4FBAD
:10439000F3F505EB450542F82980641BC1F1000CDB
:1043A00052F82450C1F1010191FBF7F106FB0155D0
:1043B00042F8245052F820109CFBF7F706FB071632
:1043C00042F8206000EB4C00B0FBF3F303EB430337
:1043D000C01ABDE8F0832DE9FF410024884611464C
:1043E00001AA06461F46019402940394FFF77EFF3C
:1043F000224615180324B5FBF4F404EB44042C1BEB
:10440000A31C04A901EB840456F8233054F80C1CB7
:1044100043440B4447F822300132032AE9D104B067
:10442000BDE8F0812DE9F0411779DFF868C007EBAE
:104430004101164604460F0105460FCE0FC53368ED
:104440002B6023790CEB0708C3F10103237108F1FA
:1044500004060246002398180321B0FBF1F101EB9A
:104460004101411A023156F8230054F8215001331A
:104470002844032B44F82100EDD15CF807100A44CE
:10448000B2FBF3F303EB4303D21A22602046BDE8EC
:10449000F08100BFC899FF1F38B504460D46FFF7ED
:1044A00015FF636A002D0CBF8022002242EA03231D
:1044B000636238BDF0B5064687B0684632466D4641
:1044C0000F46FFF7AFFF0FCD34460FC42B682360B4
:1044D0003FB133790BB947F08007736A47EA032786
:1044E000776207B0F0BD14300023C258CA500433BD
:1044F000102BFAD17047FFFF2DE9F043254887B014
:104500000DF10808466D41463030FFF7ECFF0024FE
:1045100001340C2758F824901F4D09F1780393FBC0
:10452000F7F207FB123301AA2244284602F8013CA5
:104530005A226A602201083AAA60184A52F82310E7
:1045400014F078F999FBF7F12846013114F00BFAD1
:10455000032CDDD1002416F0800F0CBF2D212B2160
:1045600042230D486B60AC6014F030F906F07F0315
:104570000B4A0948D15C103414F028F9402C4FEA5A
:104580001626E8D1202101A80A46FCF7DDFD07B078
:10459000BDE8F083A8CFFF1F401C0020CCFF010026
:1045A0003C5A02002DE9F04F324C89B004AD04F5BD
:1045B00009702946FFF797FFD4F88C820024013454
:1045C0000C2655F8243003AA7833224493FBF6F1E5
:1045D00006FB1133032C02F8013CF0D10DEB060071
:1045E00060212022FCF7B0FD05255FFA88F3B3FBBC
:1045F000F5F505EB8507DF1B06FB05F11E4B009368
:1046000006FB07F21D480331053208234FEA18283C
:1046100013F0FCFE5FFA88F30526B3FBF6F606EB13
:104620008609C9EB03090C2303FB09FA03FB06FB0C
:1046300003FB05F10AF108027B4300920F4803F1E6
:10464000080206310BF1060313F024FF0C4B009314
:104650000A480BF103010AF10502082313F0D6FE04
:10466000013C4FEA182802D035464F46D2E709B040
:10467000BDE8F08F30E8FF1F47E30100401C002039
:104680003BE3010038B5D0F87C4205463CB1013C23
:1046900003D120462146FFF765F9C5F87C4238BDB5
:1046A00013460A4612F9021BFCF781BCF0B5059CC3
:1046B00009B124490978244D0A4405EB421200252A
:1046C000A54206DA00EB850132F915608E600135EE
:1046D000F6E700F108020021A14209DA9DB20D417E
:1046E000ED075CBF4FF6FF7542F821500131F3E74B
:1046F000151F0021A14204F1804318DA023B02EBAE
:104700008303AB4210D05F6853F80469B74207D106
:1047100004F18046013E013C52F826609E60F0E7BD
:10472000BCBF5F609E60ECE701310435E2E7013B0E
:1047300052F823204FF6FF739A4208BF04F1FF346A
:104740008470F0BD38E401001CBFFF1F30B58380CA
:10475000BDF80C30838290F8563080F8303090F8F5
:10476000573080F8313090F8583080F832300324D8
:10477000B0F85C30A0F8484003840224B0F85E3002
:10478000A0F84A40A0F85A4047F6FF750024438439
:10479000B0F8603004804580C48001824282838406
:1047A000A0F84E40A0F84C4030BD30B5428290F8A1
:1047B000562080F8302090F8572080F831200224CD
:1047C000B0F85C20A0F8484047F6FF75002402844A
:1047D000A0F84C30B0F85E20BDF80C30A0F84A408C
:1047E000A0F85A4004804580848001824284A0F869
:1047F0004E3030BD30B58380BDF80C30838290F8E8
:10480000563080F8303090F8573080F8313090F8DA
:10481000583080F83230B0F85C300384B0F85E3045
:104820004384B0F86030838403240225BDF810303F
:10483000A0F84840A0F85A50002447F6FF75A0F8A9
:104840004C30BDF81430A0F84A4004804580C48044
:1048500001824282A0F84E3030BD10B5428290F8FD
:10486000562080F83020022390F85820A0F84830D5
:1048700080F831200123B0F85C20A0F84A3047F6D8
:10488000FF7400230284B0F86020A0F85A3003803F
:104890004480838001824284A0F84E30A0F84C30DE
:1048A00010BD30B58380BDF80C30C38290F856300F
:1048B00080F83030042480F8323090F85830A0F876
:1048C00048404282022490F8572080F83330B0F8F4
:1048D0005C30A0F84A4047F6FF75A0F85A4080F8CF
:1048E000312000240384B0F85E208384B0F8603067
:1048F00004804580C5800481018281824284C38412
:10490000A0F84E40A0F84C4030BD30B58380BDF8D3
:104910000C30C38290F8563080F8303080F8323056
:1049200090F8583080F83330B0F85C3003848384DA
:10493000B0F8603042820424022590F85720C384E6
:10494000BDF81030A0F84840A0F85A50002447F6AF
:10495000FF7580F83120A0F84C30B0F85E20BDF82B
:104960001430A0F84A4004804580C580048101824B
:1049700081824284A0F84E3030BDB0F93820B0F8C2
:1049800048309A4203DD002303870364838770471E
:1049900003290CD8DFE801F00B02050890F840006D
:1049A000704790F84400704790F84800704790F8BE
:1049B0003C007047022905D0032905D0012905D103
:1049C000C06A7047006B7047406B7047806A7047E1
:1049D00073B5044680F8E2200AB1A0F81C11E36C1C
:1049E000072B13D194F81E5120462946FFF7E2FF0A
:1049F000294606462046FFF7CBFF94F8DA100090D0
:104A00002A4604F5A2703346FFF750FE02B070BD8F
:104A100038B50446806919B9D4F82C31834211D0D5
:104A2000A58CC4F82C01002384F8E330A4F830519D
:104A3000FCF700FE2A46014604F5E470FFF7BCF8D7
:104A4000012038BD084638BD2DE9F84F0446D0F89E
:104A5000F08090F850A0D0F888009DF828600F46AC
:104A600091469B4670B10138C0B2FEF7B7FFFF30E8
:104A70000AEB502A0AF0FF0A4FFA8AF3002B0EDBEA
:104A8000052B27DC4FFA8AFA5FFA88F5BAF1050F91
:104A900000F2BF80DFE80AF0030E1B67AE1B16B101
:104AA00000252846B8E008F10105EDB26BB2BB4223
:104AB000F6DC08E00EB1FDB2ABE008F1FF35EDB277
:104AC0006BB2002BF7DB14BF00200120A4E0BAF189
:104AD000050F26D1D4F88C0094F8605010F0FF0F29
:104AE0000ED00138C0B2FEF779FF083005EBE005C3
:104AF0002DB2B5F5807FA8BF4FF4807525EAE57526
:104B000000204FF4807115F086F8ADB22DB2A842A6
:104B100007DA94F92A31D3F1010338BF002384F86E
:104B20002A3194F92A317BB1002EB9D108F101055F
:104B3000EDB26BB2BB426EDBD94503D384F82A6178
:104B4000FDB22AE0012029E0002EB4D108F1FF35A2
:104B5000EDB26BB2002B5EDCB9F1000F3ED1012348
:104B600084F82A3137E094F92A1194F8DD200023E3
:104B7000E9B112B908F10105EDB284F8DD30002E7B
:104B80008ED16BB2BB4246DBD9454FF0010005D355
:104B900084F82A61FDB284F8DD003046D4F828316B
:104BA00023F07F4323F0FF03B3F5807F1DE012B9AC
:104BB00008F1FF35EDB284F8DD30002E7FF47BAFD5
:104BC0006BB2002B27DCB9F1000F07D1012384F869
:104BD0002A3184F8DD304D46484600E0FF2094F944
:104BE0002A31CBB194F92931012B15D1022384F854
:104BF000293111E0781C15F003F8002E7FF450AF36
:104C0000C5B26BB2BB4206DB022014F0F9FFC0B2A2
:104C100002E0002000E030466DB2C4F8F05030B140
:104C200094F92931012B04BF022384F8293140B2C1
:104C3000BDE8F88F2DE9F04F90F8386090F81F31FB
:104C400012F1000818BF4FF001085FFA81FA9E4286
:104C500087B004460F464FFA8AFB11D090F8DC303B
:104C60002BB90B1F022B09D880F81E6106E0BBF19F
:104C7000070F05DC012380F8293101E04FF001081E
:104C800094F9293184F81F61012B02D194F81E6137
:104C90000BE0022B09D1002384F829313B1F022BA2
:104CA00098BF84F81E614FF0010894F8785065B100
:104CB000681EC0B2FEF792FEFF3006EB502606F0EB
:104CC000FF056EB286F30206F6B294F890303BB15F
:104CD000581EC0B2FEF782FE4030C0F3C71900E094
:104CE0009946BBF10F0F00F28F81DFE81BF0100037
:104CF0005B005B005B009700970097001600D800F0
:104D0000D800D800D8003001300130013001002532
:104D100084F81E61D3462E4679E1002384F82931B8
:104D2000F3B2194620460393FFF732FE484445B2DA
:104D3000012D039B04DD102DA8BF1025EDB200E06E
:104D4000022594F91E214FFA86FA52454FFA85FB47
:104D500007D194F920215A4503D194F83321072A29
:104D60000DD019462046FFF725FE94F8DA10CDF84D
:104D700000B00346524604F5A270FFF797FC84F892
:104D80001E6184F82051B8F1000F04D0002384F88C
:104D9000453184F84431002684F83371B3464FF02E
:104DA000FF0A34E194F8DE200AB3D4F82431013349
:104DB0005B45C8BF00231E44F6B2C4F82431F3B2E9
:104DC0005AB2032ACABF043E84F81E3184F81E6119
:104DD00094F81E112046FFF7DBFD012501460095E2
:104DE000204600223B46FFF72FFEA84611E085B182
:104DF00094F81E613544EDB26BB2002B02DA84F8F0
:104E00001E2106E0032BCABF032384F81E5184F839
:104E10001E3194F82461D3460025F8E094F8DA3086
:104E200084F8337123B9A94B1B68C3F3404303E0F3
:104E3000A74B1B68C3F3003394F92821934219DA76
:104E4000D4F82421033F0132FFB2BA42D4BF17463F
:104E500000273E44F6B2F2B251B20329C8BF043E65
:104E6000C4F82471D4BF84F81E2184F81E614FF069
:104E7000010811E085B194F81E613544EDB26AB2C3
:104E8000002A01DA002205E0032A02DC84F81E5120
:104E900002E0032284F81E2184F82831B4E0204681
:104EA0003146FFF775FD484445B2012D04DD102D54
:104EB000A8BF1025EDB200E0022594F92011636D22
:104EC0006AB2914204F53F7C07D194F832118B42CB
:104ED00003D194F8331159450ED07E4903934FF016
:104EE000060E60460EFB0211DAB2CDF810C0FFF7D5
:104EF000D7FBDDF810C0039B84F81E6184F82051B5
:104F000084F8323184F83371A7F1080083B9C0B254
:104F10000393CDF810C0FEF761FDDDF810C0014627
:104F20006046FCF75AF8039BC4F8F0001E4669E09F
:104F3000C7B2694B53F82710090AC1F57F61604673
:104F40000F31FCF74AF80026C4F8F0005AE020467A
:104F50003146FFF71DFD484445B2012D04DD102DFB
:104F6000A8BF1025EDB200E0022594F92011636D71
:104F70006AB2914204F53F7C07D194F832118B421A
:104F800003D194F8331159450ED0524903934FF091
:104F9000060E60460EFB0211DAB2CDF810C0FFF724
:104FA0007FFBDDF810C0039B84F8205184F8323178
:104FB00084F81E6184F83371A7F10C004BB9C0B2BC
:104FC000CDF810C0FEF70AFDDDF810C001466046BE
:104FD00008E0C7B2404B53F82710090AC1F57F61BA
:104FE00060460F31FBF7F9FFC4F8F000D4F8F03059
:104FF000D4F8F4209A424FF000060AD0C4F8E860D2
:10500000C4F8F430B34602E000252E46AB46012733
:1050100001E0B34637464FFA8AFA5346072BCDF8DC
:1050200014A094F81EA12BDC20465146FFF7B0FCDB
:105030004844C5B2B9F1000F08D06DB2012D04DDAE
:10504000102DA8BF1025EDB200E00225D4F8F02005
:10505000002A01DA002302E06BB29A4201DDC4F8B3
:10506000F030691ECDF800802046C9B2F2B25FFA76
:105070008BF3FFF7E9FC003018BF012084F8DE0055
:1050800084F81AA120465146FFF794FC059BA4F82A
:105090001C01072B84F820510DD0D4F8F03080B2D9
:1050A000184100F001004342A4F80E31002814BF5B
:1050B0003846002007E04FF6FF73A4F80E310023B6
:1050C000C4F8F030012007B0BDE8F08F50F00F4079
:1050D00010F00F40083A0200D8BAFF1F90F8DF30F6
:1050E00030B500F5C8751BB1012B00F09A801FE1A7
:1050F000062380F89031092380F891310E2380F83F
:105100009231836B032B03D8DFE803F005090D11FF
:1051100000F2931210E000F5CA720A230AE000F5CB
:10512000CA720B2306E000F5CA720C2302E000F5F8
:10513000CA720D2380F8933113231370C36C072BAD
:1051400015DC0CBF162314235370C36C072B02D13C
:10515000D41C172306E0036D052B01D0941C02E03C
:10516000D41C182393700422631C227002E01521C2
:10517000931C517007221A7000225A700278042A78
:1051800004D8DFE802F005080C1B3000991C3CE055
:10519000D91C052201E0D91C08229A7035E02B2287
:1051A0009A702C22DA702D221A712E225A71052241
:1051B0009A71322203F10801DA7126E02B229A70EB
:1051C0002C22DA702D221A712E225A7105229A7120
:1051D0002F22DA7130221A7231225A72322203F1EE
:1051E0000B019A7211E02B229A702C22DA702D2278
:1051F0001A712E225A7105229A712F22DA713022E9
:105200001A72312203F10A015A72C36C072B00F3A0
:1052100090800B46032203F8022B01224A701946A4
:1052200087E01A2380F890311F2380F891311E23E4
:1052300080F89231836B032B03D8DFE803F0050974
:105240000D1100F2931210E000F5CA720A230AE071
:1052500000F5CA720B2306E000F5CA720C2302E0C7
:1052600000F5CA720D2380F8933124231370C36CA8
:10527000072B13DC05D1202353702123D41C9370FA
:1052800002E02223941C5370C36C072B02D0036DE1
:10529000052B52D01922631C227002E02A21931C94
:1052A00051701C221A702A225A700278042A04D8DB
:1052B000DFE802F005080C1B1B009A1C27E0DA1C33
:1052C0001B2101E0DA1C1D21997020E025229A7033
:1052D0002622DA7029221A7133225A71352134229A
:1052E0009A71D97103F1080211E025229A702622E1
:1052F000DA7027221A7128225A7129229A713322D0
:10530000DA71352134221A72597203F10A02C36C20
:10531000072B06DC1346022103F8021B0121517002
:105320001A462A23137053709370111DD37000E036
:105330002946491BC0F88C1130BD2323237001344A
:10534000A8E7FFFF70B5124D124B29684FF4677440
:1053500004FB013494F8DF308BB994F8DB30E56955
:105360000D4883F0010384F8DB300BB1691C00E0C9
:10537000691EFEF7B1FB854209D0E06170BD0026D1
:1053800084F8DF602046C9B2FFF7A8FE2E7170BD19
:10539000F8E0FF1F70C8FF1FC4AAFF1F38B50C4CF0
:1053A000E36A216893B9A56C85B90A4B4FF467701D
:1053B00000FB0130C9B290F8DF30D3F1010338BFF0
:1053C000002380F8DF30FFF789FE257138BD00BF6C
:1053D000F8E0FF1F70C8FF1FF8B53A4D3A4B296837
:1053E0004FF4677606FB01362B6933442C4693F85D
:1053F00090310D2B06D80A2B42D2062B0CD0092B4C
:1054000013D05AE02A2B58D1002386F8DF303046DB
:10541000C9B2FFF763FEF8BD2B7983F001032B714E
:1054200030460121FFF7F4FAF8BDB569042D48D0E4
:10543000032D264F06DC264B282202FB053363652D
:10544000236505E02846FCF7F5F800232065636531
:1054500057F82530E364226D94F86910A6640023A0
:10546000E36552686266726AA4F8582049B3154A27
:10547000184882F868300121BDE8F840FCF707B908
:10548000B36B042B1DD0144A85F83E3002EB431257
:10549000AA636A63114AEE6252F823202A63DCB2DF
:1054A00000222A6421463046FFF772FA21466864DA
:1054B0003046FFF77FFAA887F8BD237983F0010310
:1054C0002371F8BDF8E0FF1F70C8FF1F70FA0100DC
:1054D00044C0FF1FE4C0FF1F1CBFFF1F9CE401006E
:1054E000034B012283F8342183F8D024704700BF96
:1054F00070C8FF1F2DE9F74390F8DA409D4A4FF43A
:10550000677303FB0423D3F8F070D3F81061DB6CEE
:10551000072B08BFA7004FF4677308BF063703FBCC
:105520000422FFB2BF00B2F80E5107EB841707F058
:10553000FC074DB9022300938F4839463F220523CB
:1055400012F08EFD2E4606E0052300938A48394668
:105550003C2212F085FD884840210022442312F0AD
:10556000EDFE002E80F284807642B611002EA6F168
:105570002809A6F1500804DD282EB4BF3546282599
:1055800000E001256A10BE1AF6B2B31CDBB2D9B234
:1055900048B234B13F280CDCC6F13E06F6B24021D9
:1055A0000AE028443F2806DDA5F140061E44F6B275
:1055B00002E0002600E0264673B200956E4849B22C
:1055C000C2F11E02EB1A12F0FDFEB9F1000F26DD4A
:1055D000B9F1280FB4BF4D4628256A10C2EB070E5B
:1055E0005FFA8EFE0EF10203DBB2D9B248B234B1DB
:1055F0003F280BDCCEF13E06F6B2402106E02844FF
:105600003F2803DDA5F140061E44F6B273B20095B3
:10561000594849B2C2F11E02EB1A12F021FDB8F14D
:10562000000F40F3A480B8F1280FB4BF43462823ED
:105630005A10BF1AFFB2B81CC0B2C1B24DB234B1D9
:105640003F2D0BDCC7F13E06F6B2402106E01D44BB
:105650003F2D03DDA3F140060644F6B276B2009377
:10566000454849B2C2F11E029B1B12F058FD7EE074
:10567000B611A6F12809A6F150081EB1282EA8BF20
:10568000282600E001267210BD1AEDB2AB1CDBB279
:10569000D9B248B234B13F280CDCC5F13E05EDB2B9
:1056A00040210AE030443F2806DDA6F140051D44B4
:1056B000EDB202E0002500E025466BB200962E48D0
:1056C00049B2C2F11E02F31A12F0CAFCB9F1000F7E
:1056D00026DDB9F1280FB4BF4E4628267210C2EB62
:1056E000070E5FFA8EFE0EF10203DBB2D9B248B2AA
:1056F00034B13F280BDCCEF13E05EDB2402106E08F
:1057000030443F2803DDA6F140051D44EDB26BB2E5
:105710000096194849B2C2F11E02F31A12F0FFFCBA
:10572000B8F1000F23DDB8F1280FB4BF434628239A
:105730005A10BF1AFFB2B81CC0B2C1B24EB234B1D7
:105740003F2E0BDCC7F13E05EDB2402106E01E44C2
:105750003F2E03DDA3F140050544EDB26DB2009389
:10576000054849B2C2F11E025B1B12F079FC03B07E
:10577000BDE8F08370C8FF1F401C002010B5054C29
:105780002046FFF7B7FE04F56770BDE81040FFF74D
:10579000B1BE00BF70C8FF1F0A68D24392B230B5D5
:1057A0001412104D35F814300235D2B235F81440C9
:1057B000E41A624303EB22239BB203608B8840F61A
:1057C000FF725B43A2EB135343600B899B0383601F
:1057D000CB68A3F500431BB21B01C3600B8A1B12ED
:1057E000036230BD60740200036A30B53BB1446AA5
:1057F0009C4204DB012380F82930002343628B079D
:1058000002D490F8293093B190F82810002380F842
:105810002930C36829B184680361E517C0E90645EA
:1058200005E0016919449942D4BF0161036101692E
:105830000368D0E90645CB1AE41845EBE375012C63
:1058400075F100010361C0E906450BDA416A0131D7
:105850004162002400251B1341685B42C0E90645F4
:1058600059430161D0E90645D203D317A24273EB35
:10587000050107DAC0E9062303691B135A4243688E
:10588000534303618269C369D00B40EA434030BD92
:1058900050F82100032810B517D0052801D10E2497
:1058A00001E0A0B10D2401F18041063900F18040F2
:1058B00052F821200138C4F1100402FA04F453F81C
:1058C0002020224443F8202010BD0C24EBE710BD1B
:1058D000002380F8AC30012380F8AD30022380F83B
:1058E000AE30032380F8AF30042380F8B0300523B6
:1058F00080F8B130062380F8B230836913B900F123
:10590000B30313E0072380F8B330082380F8B430E2
:10591000092380F8B5300A2380F8B6300C220B2317
:1059200080F8B73080F8B82000F1B9030D221A7062
:105930000E225A700F229A701022DA7011221A71F8
:1059400012225A711B1AA63BC0F8A830704750F8B3
:10595000210068B100F1804001F1804101380F3928
:1059600032F9211053F8202002EB011243F82020D5
:10597000704703290BD8DFE801F002040608406BEA
:105980007047806B7047C06B7047006C7047002099
:105990007047FFFF2DE9F84F9A466B4B1E6805468E
:1059A00086F480569DF82800D5F81CB095F88F40F5
:1059B000C6F30036064395F868000F4690465FFA36
:1059C0008BF970B10138C0B2FEF708F8FF3009EB6F
:1059D000502909F0FF094FFA89F3002B0CDB052B46
:1059E0001FDC4FFA89F9B9F1050F00F2A080DFE85A
:1059F00009F0030C18608F180EB1002486E0013402
:105A0000E4B263B2BB4208DDF7E70EB1FCB28EE050
:105A1000013CE4B263B2002BF8DB14BF002001208C
:105A20008CE0BBF1050F26D1E86E95F8209010F0C0
:105A3000FF0F0FD00138C0B2FDF7D0FF083009EBDF
:105A4000E0090FFA89F9B9F5807FA8BF4FF4807992
:105A500029EAE97900204FF4807114F0DCF81FFA8C
:105A600089F90FFA89F9484505DA95F8953083F0F8
:105A7000010385F8953095F8953063B1002EBCD1BF
:105A80000134E4B263B2BB4257DBD04551D385F851
:105A90009560FCB251E0002EB8D1013CE4B263B293
:105AA000002B4ADCB8F1000F45D1012385F8953071
:105AB0002BE095F8951095F89220002399B10AB93A
:105AC0000134E4B285F89230002E96D163B2BB4225
:105AD00033DBD0454FF0010030D385F89560FCB240
